:020000020000FC
:10000000CFC45DC018951895099459C036C018958D
:100010003EC01895189573C01895189518951895A1
:1000200018956DC01895697A40744042405B9FB640
:100030008A9409F4E1E29FBE18959FB68A949FBE08
:10004000189520FD959A21FDAC9A22FDC09AEDE20B
:10005000832C24BC1895A89518958F12EECFA895DF
:1000600011FDEFCFE0916500852C20FD959821FDD5
:10007000AC9822FDC09844BC18959FB6409163008F
:10008000415008F40E7F409363009FBE18959FB6C1
:10009000409164004395409364004F7019F4BB2075
:1000A00019F0BA949FBE189540916600439540930D
:1000B000660040916700439540936700F3CF4CB5CD
:1000C0005DB5829B0DC09FB65A5659BD48BD42E0F2
:1000D00045BF48E048BF9FBE18959FB604600BC05F
:1000E00098B693FCFACF9FB63A0148B559B5565920
:1000F000641A750A106143E045BF9FBE189590E5EC
:1001000078ECAD98959A17D0E1F7089594E674EBE2
:10011000AB98AC9A10D0E1F7089598E770EA9498FC
:10012000C09A09D0E1F708959CE87CE8AB98959ACD
:1001300002D0E1F70895F2BF82B78032E8F3949AD3
:10014000AD9AAB9A9598AC98C09860E1F2BFA8952B
:1001500082B78717E8F36A95C9F79A95089500D092
:1001600000D000D09FE060E1F2BF81E088BFA89599
:1001700088B780FFFDCF6A95B9F79A95A1F70895E2
:10018000809187009091880089569A4739F0C7E896
:10019000D0E0E6E285918993CF38E1F70895809128
:1001A000600081BF0F7DC7E8D0E080E890E0A895AF
:1001B000E199FDCF67B760FDFACFCF3881F09FBBE3
:1001C0008EBB0196E09A6DB317F06993F0CF7991E9
:1001D0007DBBF894E29A6713E19A7894E8CFC2DF86
:1001E0008FEF81BF0895000C111CAA1C8A95D9F7C6
:1001F0000895869FA12C969FA00CC11DDF1F879F8D
:10020000A00CC11DDF1F979FC00DD11D08951F7E3B
:10021000C3019053660B602763FD4BC01F76C3017B
:100220009033A8F003FD1AC0C0917F00D0918000E8
:100230008C1B9D0BA8F41068909581959F4F609141
:100240007D0070917E0010C0CC27DD271DC0963048
:1002500028F0803C62E1960703FD30F304600895C6
:1002600060917B0070917C00C0918100D0918200F0
:100270008C1B9D0B4AF3C8E3D0E0BBDFC73583E09E
:10028000D80710F0C7E5D3E0C0937900D0937A0087
:1002900001FF03C082E0B82EC1C08CE0B816BF1EBB
:1002A0000895C3E07695679596958795CA95D1F799
:1002B000089588E0082780918D0090918E006091CC
:1002C000890070918A0003FDECDF80937F0090939A
:1002D0008000681B790B1ED080937B0090937C007C
:1002E00060918D0070918E0080918B0090918C00B8
:1002F00003FDD7DF681B790B0DD080937D009093B1
:100300007E0080E293E003FDCCDF80938100909338
:10031000820008956052734085E595E00196A895A6
:100320009F3F890721F0C0EEDCEF63DFB9F7089546
:10033000F8948CB59DB56091640078B77894903846
:1003400072FD6F1FC0916900D0916A00A0906B0090
:100350008093690090936A0060936B0000906C003A
:1003600010906D0070916E00C0936C00D0936D0082
:10037000A0926E0080199109670B94306F0728F4E2
:1003800080E094E060E0D694C79490386F07A7E5CA
:10039000B3E0F0F0A1E0B1E27D01A0E8BBEAFF9F8D
:1003A000771B0AC0771F001C111C78170906160658
:1003B00018F0781B090A160AAA1FBB1FEE1CFA9434
:1003C00089F7A095B095A63DBF0710F4A6EDB0E063
:1003D0007D0180936F00909370006093710066952B
:1003E00097958795C0916900D0916A00A0906B00A5
:1003F00073E348D0C0937200D0937300A09274004E
:1004000090316F0718F02F7B60D002C0206498D025
:1004100014FD04CFC0917900D0917A00CE15DF058C
:1004200008F0E701CC15DD0508F0E6018EE890E064
:10043000C817D90708F0CE01880F991FC816D9062A
:1004400008F06C0187E593E08C1B9D0BB1F02096C2
:10045000B1F01D7F116016FF04C0880F991FCC0FEB
:10046000DD1F71E29F1377E1C09580951E01F8941E
:100470002C0170936500789408951360F2CF1C7F6F
:100480007DE2F2CF879FC10DDF1FAF1E979FC00D8A
:10049000D11DAF1E679FD00DA11C089580916F00E4
:1004A0009091700060917100C0917200D0917300C2
:1004B000A09074000895F2DFC80FD91FA61EC80FC0
:1004C000D91FA61E02C0EADFDDDF79B7072E7B7ECB
:1004D00079BF70E1F894DBBDCABD78BF8CB59DB51E
:1004E000789401606091640078B7903872FD6F1F56
:1004F000C81BD90BA60AA09263000AF40E7F09BE9E
:10050000089526FFD8CF80916F0090917000C09120
:100510007200D0917300C80FD91FC80FD91F10C027
:1005200026FFD1CF80916F0090917000C091720032
:10053000D0917300879FC10DDF1F979FC00DD11D04
:1005400070E1F894DBBDCABD78BF8CB59DB5016084
:10055000F09363007894C81BD90B0AF40E7F0895BA
:10056000279670E1F8948CB59DB5C80FD91FDBBDF7
:10057000CABD78BFA092630001607894089514FD0D
:100580004DDE00FDFCCF0895F5BD80E488BFEBE2B1
:10059000949AAD9AAB9A9598AC98C0980895829B1E
:1005A000F09366008091660085FF0895E0E0F8947E
:1005B000FCE185919491F0E0789401960297A8F37C
:1005C000F894F7BBF4BBF1BB88E181BDF1BD80912C
:1005D000600081BF15CB00240FBEEFE5F4E0FEBF45
:1005E000EDBF0292E036F00509F4EEE1E015F0050A
:1005F000C1F781B780936000A4B6F4BFF8BB81E077
:1006000087BB88E285BB88E384BB80E182BB80E353
:1006100081BB82E083BF81E08EBDF5BD88E181BDF5
:1006200088E081BD9FDDBBDDABDD7894A0FAAF1221
:1006300026F465DD6BDD71DD1EC0A2FE04C06DDD3C
:100640005EDD006818C0A1FE02C06EDD14C0F89423
:10065000A3FE05C054DD53DD60DD5FDDFBCF7FDD34
:100660004A2D58E040FF52DD40FD5EDD79DD4695C4
:100670005A95C1F7F4CF0D7F1EDE84E588BF89BF90
:1006800083E085BF80E48BBFBB24137EF0936600BC
:10069000F0936700A89514FD0AC081DF8091670080
:1006A0008837C1F78CE38093670037DDF3CFAFDD88
:1006B000C0917900D0917A00209631F78AE0B8167F
:1006C00048F3812F8C7009F0FBBF2EDD2DDD2CDD72
:1006D0000B7F5ADF0D7FF0936600F0936700A895BB
:1006E00014FD0CC0BB20D9F75ADF809167008E3112
:1006F000B1F74ADF37DD11DD09DDBDCF8FDDBB206E
:1007000071F3209641F340DF80B7886080BF37984F
:10071000CEE8D0E06E010260D6D0F0937500F09381
:100720007600F093770082E0B82E86E08093620036
:100730008CE08093610081E085BD17FD37C0C7D094
:1007400087E087B9AD9A10FD9498BFD080E087B953
:10075000F894287F226088B3C09898B38913AC9A24
:100760007894B5D086E087B9949A10FDAB98ADD057
:1007700087E087B9F894287F216085B3AC9895B35A
:100780008913959A7894A3D080E087B9AB9A10FD2D
:10079000AD989BD086E087B9F894287F246082B317
:1007A000959892B38913C09A789436C08ED080E021
:1007B00087B9F894287F216088B3C09898B38913CB
:1007C000959A789484D087E087B9AD9A10FDAB985C
:1007D0007CD086E087B9F894287F226082B3959810
:1007E00092B38913AC9A789472D080E087B9AB9AAF
:1007F00010FD94986AD087E087B9F894287F246028
:1008000085B3AC9895B38913C09A789460D086E08C
:1008100087B9949A10FDAD9880916100803010FFE7
:1008200069F1E601209659F18C30C8F483958093E4
:100830006100629686ED90E060917700709176009D
:100840007C5F7093760021F4605FD1F06093770055
:10085000603168F0703358F083E290E008C01F7B8D
:10086000F0937700F09376006B9687E593E0C817D6
:10087000D90710F06C0161CF6E015FCF2ACF43CF53
:1008800083DE0D7F6CDC6BDC4FDCC8DC2096D1F79F
:10089000F2CEEBE29598AC98C09881E0809362002C
:1008A0005CC016FD08C0BC3030F0BBE0AB1708F4EC
:1008B000AB2F27DE45C0F093610070917500715F2A
:1008C00016FD70937500106448C01F7D01C0106252
:1008D00080916200815050F08093620016FF18C032
:1008E000C0E0DFEFAF2E3CDEA3E029C0EB3209F41D
:1008F000EDE216FD3EC07BE113DE41DE79E510DE60
:1009000000FFC7CF14FD8ADC68B1612765FDF8CF11
:10091000A0917000B0917100B695A795B695A79576
:10092000A330BF0750F051F0AA31BF0708F0AAE189
:10093000AC3020F073E3F4DD02C0A3E0E2DDBA2FB7
:1009400000FFAFCF14FD6ADC68B1612765FD03C00D
:10095000AB17AF1FF5CFAA9599F7EADC16FF0FDEAC
:10096000809162008F131E7FBF1208958F918F9127
:10097000B0CEC0E0D0E070E0A72E80916100823060
:1009800030F47091750080E090E860E07BDDE8DD98
:10099000F6DDC0E0D8EB7BE0A72EE2DDAFEFCFCFF6
:0209A0001ACE6D
:101C0000E4E0FFE5FEBFEDBF00E0ECEBFEE0C0E886
:101C1000D0E0A0E6B0E042E045BD5CEE539571F047
:101C200040EC04BD48BFA03619F0E8B6E6FC46C05B
:101C30008299F9CF04BD48BFE8B6E6FCE1C1829BBA
:101C4000FBCF04BD48BFE8B6E6FCE8CF8299FBCFE6
:101C500034B404BD48BFE8B6E6FCD2C1829BFBCFDA
:101C600024B4022C030C802C07940694402C069478
:101C70008008809420943094409460EE83E084BC8B
:101C800048BFE8B6E6FCBCC1829BFBCF84BC48BF22
:101C9000E8B6E6FCC3CF8299FBCF0894E8B6E6FC31
:101CA00023C0829BFBCFE8B6E6FCB8CF8299FBCF7E
:101CB0008894E8B6829BE6FC17C0FBCF43BC87E163
:101CC000929A8A9A34BC48BFE8B6E6FEFDCF929855
:101CD00024BC48BFE8B6E6FEFDCF8A9589F7C0E68A
:101CE000D0E060E081E00BC0679548F6815068F570
:101CF0005CEE0994CA17DB07D1F0699188E066951C
:101D0000929A34BC48BFE8B610F0E7FC02BBE6FE8E
:101D1000FACF929808F0929A24BC48BFE8B610F027
:101D2000E7FC02BBE6FEFACF8A9549F7E3CF929A29
:101D300034BC48BFC0E8D0E0A0E6B0E0E8B6E7FEBB
:101D4000FDCF8A9802BB6ACF80E060E898CFECEBC9
:101D5000FEE0C0E8D0E0F8CF009000000090000066
:101D60000090000000900000009000000090000033
:101D70000090000000900000000000006B3121F78F
:101D8000562E3796E1CF962E56263496DDCF762EF8
:101D900056263496D9CF662E56263496D5CF6E3039
:101DA000B1F656263596D0CF69935626CF3584E0C6
:101DB000D80768F681E0681A700A09F43C96C4CF27
:101DC0006511C5CFC0E8D0E0699199918991FD0175
:101DD0007BE170839182028372E073837EE074837F
:101DE0006583068317966130A1F48BE0838388E0D6
:101DF0008D93EF01ECEDFFE185918D93E43EE1F7EA
:101E0000FE01819161918627EA17FB07D9F78D932F
:101E10009ECF6D3151F5792F90E0039683839283A5
:101E200003970D938A95E9F789916991603380074B
:101E300094E0790779F460878991803059F4699149
:101E400060308EE131F0613083E919F0623087E073
:101E500009F482870D93D5CF8017900709F5D990A3
:101E6000C9905601AA0CBB1CCCCF6330E1F06230A4
:101E700041F2603131F2613121F2663069F3623151
:101E8000F1F1833F73E0970758F4643109F166314B
:101E900069F127966531C1F16331F9F10000000065
:101EA00080EC8683AECF90398FE071F0913982E07B
:101EB00059F092398AE041F0943982E329F0903860
:101EC00080E011F0913861F78D9383E0838399CF9F
:101ED00049D0EF01F5018FD076FDFDCF65916D936F
:101EE0000197E1F75F01FE010D938BCF3BD011E02D
:101EF0003ED06DB36D930197D9F70D9382CF47D044
:101F0000000080E092E0689416E06FEF0EF06991B7
:101F10002ED00197D1F7E89474CF8F7F61E07F01D5
:101F2000F5010990199068D032960297D1F70F0108
:101F3000F501500163E0E03C7FE1F70719F058D06C
:101F4000F7015FCF0BD065E009D061E107D0F8CF92
:101F500077B770FDFDCFE199FECF0895F9DF67BF38
:101F6000E8950895039692838383039708953AD062
:101F7000DFBACEBA0894C01ED01E762FE09A6DB399
:101F8000671312FF08957DBBE29A1CBB08957F0181
:101F9000E0E0FCE163E0E054F0402ED0E1F76F01B7
:101FA000F70108950000000000000000000000009C
:101FB0000000000000000000000000000000000021
:101FC000687474703A2F2F6769746875622E636F36
:101FD0006D2F73696D2D2F7467792F00415652490B
:101FE00053505F3277B770FDFDCFE199FECF089572
:101FF00003D065E001D061E1F5DF67BFE8950895A2
:00000001FF
